{
  "contractName": "Election",
  "abi": [
    {
      "inputs": [],
      "stateMutability": "nonpayable",
      "type": "constructor"
    },
    {
      "anonymous": false,
      "inputs": [
        {
          "indexed": true,
          "internalType": "uint256",
          "name": "_candidateId",
          "type": "uint256"
        }
      ],
      "name": "Voted",
      "type": "event"
    },
    {
      "inputs": [],
      "name": "candidatesCount",
      "outputs": [
        {
          "internalType": "uint256",
          "name": "",
          "type": "uint256"
        }
      ],
      "stateMutability": "view",
      "type": "function"
    },
    {
      "inputs": [],
      "name": "electionState",
      "outputs": [
        {
          "internalType": "enum Election.State",
          "name": "",
          "type": "uint8"
        }
      ],
      "stateMutability": "view",
      "type": "function"
    },
    {
      "inputs": [],
      "name": "owner",
      "outputs": [
        {
          "internalType": "address",
          "name": "",
          "type": "address"
        }
      ],
      "stateMutability": "view",
      "type": "function"
    },
    {
      "inputs": [],
      "name": "votersCount",
      "outputs": [
        {
          "internalType": "uint256",
          "name": "",
          "type": "uint256"
        }
      ],
      "stateMutability": "view",
      "type": "function"
    },
    {
      "inputs": [],
      "name": "startElection",
      "outputs": [],
      "stateMutability": "nonpayable",
      "type": "function"
    },
    {
      "inputs": [],
      "name": "endElection",
      "outputs": [],
      "stateMutability": "nonpayable",
      "type": "function"
    },
    {
      "inputs": [
        {
          "internalType": "string",
          "name": "_name",
          "type": "string"
        }
      ],
      "name": "addCandidate",
      "outputs": [],
      "stateMutability": "nonpayable",
      "type": "function"
    },
    {
      "inputs": [
        {
          "internalType": "address",
          "name": "_voter",
          "type": "address"
        }
      ],
      "name": "addVoter",
      "outputs": [],
      "stateMutability": "nonpayable",
      "type": "function"
    },
    {
      "inputs": [
        {
          "internalType": "address",
          "name": "_voter",
          "type": "address"
        }
      ],
      "name": "checkVoter",
      "outputs": [
        {
          "internalType": "bool",
          "name": "",
          "type": "bool"
        }
      ],
      "stateMutability": "view",
      "type": "function"
    },
    {
      "inputs": [
        {
          "internalType": "address",
          "name": "_current",
          "type": "address"
        }
      ],
      "name": "getRole",
      "outputs": [
        {
          "internalType": "uint256",
          "name": "",
          "type": "uint256"
        }
      ],
      "stateMutability": "view",
      "type": "function"
    },
    {
      "inputs": [
        {
          "internalType": "uint256",
          "name": "_candidateId",
          "type": "uint256"
        }
      ],
      "name": "vote",
      "outputs": [],
      "stateMutability": "nonpayable",
      "type": "function"
    },
    {
      "inputs": [
        {
          "internalType": "uint256",
          "name": "_candidateId",
          "type": "uint256"
        }
      ],
      "name": "getCandidateDetails",
      "outputs": [
        {
          "internalType": "string",
          "name": "",
          "type": "string"
        },
        {
          "internalType": "uint256",
          "name": "",
          "type": "uint256"
        }
      ],
      "stateMutability": "view",
      "type": "function"
    }
  ],
  "bytecode": "0x6080604052600060045560006005553480156200001b57600080fd5b50336000806101000a81548173ffffffffffffffffffffffffffffffffffffffff021916908373ffffffffffffffffffffffffffffffffffffffff16021790555060008060146101000a81548160ff02191690836002811115620000845762000083620002aa565b5b0217905550620000cf6040518060400160405280600c81526020017f43616e64696461746520303100000000000000000000000000000000000000008152506200011b60201b60201c565b620001156040518060400160405280600c81526020017f43616e64696461746520303200000000000000000000000000000000000000008152506200011b60201b60201c565b620007ab565b3373ffffffffffffffffffffffffffffffffffffffff1660008054906101000a900473ffffffffffffffffffffffffffffffffffffffff1673ffffffffffffffffffffffffffffffffffffffff1614620001ac576040517f08c379a0000000000000000000000000000000000000000000000000000000008152600401620001a3906200033a565b60405180910390fd5b60006002811115620001c357620001c2620002aa565b5b600060149054906101000a900460ff166002811115620001e857620001e7620002aa565b5b146200022b576040517f08c379a00000000000000000000000000000000000000000000000000000000081526004016200022290620003ac565b60405180910390fd5b6040518060600160405280600454815260200182815260200160008152506001600060045481526020019081526020016000206000820151816000015560208201518160010190816200027f919062000648565b506040820151816002015590505060046000815480929190620002a2906200075e565b919050555050565b7f4e487b7100000000000000000000000000000000000000000000000000000000600052602160045260246000fd5b600082825260208201905092915050565b7f4f6e6c79206f776e65722063616e206164642063616e64696461746573000000600082015250565b600062000322601d83620002d9565b91506200032f82620002ea565b602082019050919050565b60006020820190508181036000830152620003558162000313565b9050919050565b7f456c656374696f6e2068617320616c7265616479207374617274656400000000600082015250565b600062000394601c83620002d9565b9150620003a1826200035c565b602082019050919050565b60006020820190508181036000830152620003c78162000385565b9050919050565b600081519050919050565b7f4e487b7100000000000000000000000000000000000000000000000000000000600052604160045260246000fd5b7f4e487b7100000000000000000000000000000000000000000000000000000000600052602260045260246000fd5b600060028204905060018216806200045057607f821691505b60208210810362000466576200046562000408565b5b50919050565b60008190508160005260206000209050919050565b60006020601f8301049050919050565b600082821b905092915050565b600060088302620004d07fffffffffffffffffffffffffffffffffffffffffffffffffffffffffffffffff8262000491565b620004dc868362000491565b95508019841693508086168417925050509392505050565b6000819050919050565b6000819050919050565b600062000529620005236200051d84620004f4565b620004fe565b620004f4565b9050919050565b6000819050919050565b620005458362000508565b6200055d620005548262000530565b8484546200049e565b825550505050565b600090565b6200057462000565565b620005818184846200053a565b505050565b5b81811015620005a9576200059d6000826200056a565b60018101905062000587565b5050565b601f821115620005f857620005c2816200046c565b620005cd8462000481565b81016020851015620005dd578190505b620005f5620005ec8562000481565b83018262000586565b50505b505050565b600082821c905092915050565b60006200061d60001984600802620005fd565b1980831691505092915050565b60006200063883836200060a565b9150826002028217905092915050565b6200065382620003ce565b67ffffffffffffffff8111156200066f576200066e620003d9565b5b6200067b825462000437565b62000688828285620005ad565b600060209050601f831160018114620006c05760008415620006ab578287015190505b620006b785826200062a565b86555062000727565b601f198416620006d0866200046c565b60005b82811015620006fa57848901518255600182019150602085019450602081019050620006d3565b868310156200071a578489015162000716601f8916826200060a565b8355505b6001600288020188555050505b505050505050565b7f4e487b7100000000000000000000000000000000000000000000000000000000600052601160045260246000fd5b60006200076b82620004f4565b91507fffffffffffffffffffffffffffffffffffffffffffffffffffffffffffffffff8203620007a0576200079f6200072f565b5b600182019050919050565b61198080620007bb6000396000f3fe608060405234801561001057600080fd5b50600436106100b45760003560e01c806359f784681161007157806359f784681461018e57806362d73eb8146101985780638da5cb5b146101a257806398c07938146101c05780639b8ebc54146101de578063f4ab9adf1461020e576100b4565b80630121b93f146100b95780632280043d146100d557806327f9fd50146100f35780632d35a8a2146101245780634427673314610142578063462e91ec14610172575b600080fd5b6100d360048036038101906100ce9190610cf3565b61022a565b005b6100dd6104be565b6040516100ea9190610d97565b60405180910390f35b61010d60048036038101906101089190610cf3565b6104d1565b60405161011b929190610e51565b60405180910390f35b61012c6105e7565b6040516101399190610e81565b60405180910390f35b61015c60048036038101906101579190610efa565b6105ed565b6040516101699190610e81565b60405180910390f35b61018c6004803603810190610187919061105c565b6106b0565b005b61019661082f565b005b6101a061092a565b005b6101aa610a25565b6040516101b791906110b4565b60405180910390f35b6101c8610a49565b6040516101d59190610e81565b60405180910390f35b6101f860048036038101906101f39190610efa565b610a4f565b60405161020591906110ea565b60405180910390f35b61022860048036038101906102239190610efa565b610aa5565b005b6001600281111561023e5761023d610d20565b5b600060149054906101000a900460ff1660028111156102605761025f610d20565b5b146102a0576040517f08c379a000000000000000000000000000000000000000000000000000000000815260040161029790611151565b60405180910390fd5b600360003373ffffffffffffffffffffffffffffffffffffffff1673ffffffffffffffffffffffffffffffffffffffff16815260200190815260200160002060009054906101000a900460ff1661032c576040517f08c379a0000000000000000000000000000000000000000000000000000000008152600401610323906111bd565b60405180910390fd5b600260003373ffffffffffffffffffffffffffffffffffffffff1673ffffffffffffffffffffffffffffffffffffffff16815260200190815260200160002060009054906101000a900460ff16156103b9576040517f08c379a00000000000000000000000000000000000000000000000000000000081526004016103b090611229565b60405180910390fd5b600081101580156103cb575060045481105b61040a576040517f08c379a000000000000000000000000000000000000000000000000000000000815260040161040190611295565b60405180910390fd5b600160008281526020019081526020016000206002016000815480929190610431906112e4565b91905055506001600260003373ffffffffffffffffffffffffffffffffffffffff1673ffffffffffffffffffffffffffffffffffffffff16815260200190815260200160002060006101000a81548160ff021916908315150217905550807f7f511e347bf51eed3be100b3194247d5207f05f3b33de7d31e3e8ee73199a04960405160405180910390a250565b600060149054906101000a900460ff1681565b606060008083101580156104e6575060045483105b610525576040517f08c379a000000000000000000000000000000000000000000000000000000000815260040161051c90611295565b60405180910390fd5b60016000848152602001908152602001600020600101600160008581526020019081526020016000206002015481805461055e9061135b565b80601f016020809104026020016040519081016040528092919081815260200182805461058a9061135b565b80156105d75780601f106105ac576101008083540402835291602001916105d7565b820191906000526020600020905b8154815290600101906020018083116105ba57829003601f168201915b5050505050915091509150915091565b60045481565b60008173ffffffffffffffffffffffffffffffffffffffff1660008054906101000a900473ffffffffffffffffffffffffffffffffffffffff1673ffffffffffffffffffffffffffffffffffffffff160361064b57600190506106ab565b600360008373ffffffffffffffffffffffffffffffffffffffff1673ffffffffffffffffffffffffffffffffffffffff16815260200190815260200160002060009054906101000a900460ff16156106a657600290506106ab565b600390505b919050565b3373ffffffffffffffffffffffffffffffffffffffff1660008054906101000a900473ffffffffffffffffffffffffffffffffffffffff1673ffffffffffffffffffffffffffffffffffffffff161461073e576040517f08c379a0000000000000000000000000000000000000000000000000000000008152600401610735906113d8565b60405180910390fd5b6000600281111561075257610751610d20565b5b600060149054906101000a900460ff16600281111561077457610773610d20565b5b146107b4576040517f08c379a00000000000000000000000000000000000000000000000000000000081526004016107ab90611444565b60405180910390fd5b6040518060600160405280600454815260200182815260200160008152506001600060045481526020019081526020016000206000820151816000015560208201518160010190816108069190611610565b506040820151816002015590505060046000815480929190610827906112e4565b919050555050565b60008054906101000a900473ffffffffffffffffffffffffffffffffffffffff1673ffffffffffffffffffffffffffffffffffffffff163373ffffffffffffffffffffffffffffffffffffffff16146108bd576040517f08c379a00000000000000000000000000000000000000000000000000000000081526004016108b49061172e565b60405180910390fd5b600160028111156108d1576108d0610d20565b5b600060149054906101000a900460ff1660028111156108f3576108f2610d20565b5b146108fd57600080fd5b6002600060146101000a81548160ff0219169083600281111561092357610922610d20565b5b0217905550565b60008054906101000a900473ffffffffffffffffffffffffffffffffffffffff1673ffffffffffffffffffffffffffffffffffffffff163373ffffffffffffffffffffffffffffffffffffffff16146109b8576040517f08c379a00000000000000000000000000000000000000000000000000000000081526004016109af906117c0565b60405180910390fd5b600060028111156109cc576109cb610d20565b5b600060149054906101000a900460ff1660028111156109ee576109ed610d20565b5b146109f857600080fd5b6001600060146101000a81548160ff02191690836002811115610a1e57610a1d610d20565b5b0217905550565b60008054906101000a900473ffffffffffffffffffffffffffffffffffffffff1681565b60055481565b6000600360008373ffffffffffffffffffffffffffffffffffffffff1673ffffffffffffffffffffffffffffffffffffffff16815260200190815260200160002060009054906101000a900460ff169050919050565b3373ffffffffffffffffffffffffffffffffffffffff1660008054906101000a900473ffffffffffffffffffffffffffffffffffffffff1673ffffffffffffffffffffffffffffffffffffffff1614610b33576040517f08c379a0000000000000000000000000000000000000000000000000000000008152600401610b2a9061182c565b60405180910390fd5b600360008273ffffffffffffffffffffffffffffffffffffffff1673ffffffffffffffffffffffffffffffffffffffff16815260200190815260200160002060009054906101000a900460ff1615610bc0576040517f08c379a0000000000000000000000000000000000000000000000000000000008152600401610bb790611898565b60405180910390fd5b60006002811115610bd457610bd3610d20565b5b600060149054906101000a900460ff166002811115610bf657610bf5610d20565b5b14610c36576040517f08c379a0000000000000000000000000000000000000000000000000000000008152600401610c2d9061192a565b60405180910390fd5b6001600360008373ffffffffffffffffffffffffffffffffffffffff1673ffffffffffffffffffffffffffffffffffffffff16815260200190815260200160002060006101000a81548160ff02191690831515021790555060056000815480929190610ca1906112e4565b919050555050565b6000604051905090565b600080fd5b600080fd5b6000819050919050565b610cd081610cbd565b8114610cdb57600080fd5b50565b600081359050610ced81610cc7565b92915050565b600060208284031215610d0957610d08610cb3565b5b6000610d1784828501610cde565b91505092915050565b7f4e487b7100000000000000000000000000000000000000000000000000000000600052602160045260246000fd5b60038110610d6057610d5f610d20565b5b50565b6000819050610d7182610d4f565b919050565b6000610d8182610d63565b9050919050565b610d9181610d76565b82525050565b6000602082019050610dac6000830184610d88565b92915050565b600081519050919050565b600082825260208201905092915050565b60005b83811015610dec578082015181840152602081019050610dd1565b60008484015250505050565b6000601f19601f8301169050919050565b6000610e1482610db2565b610e1e8185610dbd565b9350610e2e818560208601610dce565b610e3781610df8565b840191505092915050565b610e4b81610cbd565b82525050565b60006040820190508181036000830152610e6b8185610e09565b9050610e7a6020830184610e42565b9392505050565b6000602082019050610e966000830184610e42565b92915050565b600073ffffffffffffffffffffffffffffffffffffffff82169050919050565b6000610ec782610e9c565b9050919050565b610ed781610ebc565b8114610ee257600080fd5b50565b600081359050610ef481610ece565b92915050565b600060208284031215610f1057610f0f610cb3565b5b6000610f1e84828501610ee5565b91505092915050565b600080fd5b600080fd5b7f4e487b7100000000000000000000000000000000000000000000000000000000600052604160045260246000fd5b610f6982610df8565b810181811067ffffffffffffffff82111715610f8857610f87610f31565b5b80604052505050565b6000610f9b610ca9565b9050610fa78282610f60565b919050565b600067ffffffffffffffff821115610fc757610fc6610f31565b5b610fd082610df8565b9050602081019050919050565b82818337600083830152505050565b6000610fff610ffa84610fac565b610f91565b90508281526020810184848401111561101b5761101a610f2c565b5b611026848285610fdd565b509392505050565b600082601f83011261104357611042610f27565b5b8135611053848260208601610fec565b91505092915050565b60006020828403121561107257611071610cb3565b5b600082013567ffffffffffffffff8111156110905761108f610cb8565b5b61109c8482850161102e565b91505092915050565b6110ae81610ebc565b82525050565b60006020820190506110c960008301846110a5565b92915050565b60008115159050919050565b6110e4816110cf565b82525050565b60006020820190506110ff60008301846110db565b92915050565b7f456c656374696f6e206973206e6f7420696e2070726f67726573730000000000600082015250565b600061113b601b83610dbd565b915061114682611105565b602082019050919050565b6000602082019050818103600083015261116a8161112e565b9050919050565b7f4e6f6e20617574686f726973656420757365722063616e6e6f7420766f746500600082015250565b60006111a7601f83610dbd565b91506111b282611171565b602082019050919050565b600060208201905081810360008301526111d68161119a565b9050919050565b7f596f75206861766520616c726561647920766f74656400000000000000000000600082015250565b6000611213601683610dbd565b915061121e826111dd565b602082019050919050565b6000602082019050818103600083015261124281611206565b9050919050565b7f496e76616c69642063616e646964617465204944000000000000000000000000600082015250565b600061127f601483610dbd565b915061128a82611249565b602082019050919050565b600060208201905081810360008301526112ae81611272565b9050919050565b7f4e487b7100000000000000000000000000000000000000000000000000000000600052601160045260246000fd5b60006112ef82610cbd565b91507fffffffffffffffffffffffffffffffffffffffffffffffffffffffffffffffff8203611321576113206112b5565b5b600182019050919050565b7f4e487b7100000000000000000000000000000000000000000000000000000000600052602260045260246000fd5b6000600282049050600182168061137357607f821691505b6020821081036113865761138561132c565b5b50919050565b7f4f6e6c79206f776e65722063616e206164642063616e64696461746573000000600082015250565b60006113c2601d83610dbd565b91506113cd8261138c565b602082019050919050565b600060208201905081810360008301526113f1816113b5565b9050919050565b7f456c656374696f6e2068617320616c7265616479207374617274656400000000600082015250565b600061142e601c83610dbd565b9150611439826113f8565b602082019050919050565b6000602082019050818103600083015261145d81611421565b9050919050565b60008190508160005260206000209050919050565b60006020601f8301049050919050565b600082821b905092915050565b6000600883026114c67fffffffffffffffffffffffffffffffffffffffffffffffffffffffffffffffff82611489565b6114d08683611489565b95508019841693508086168417925050509392505050565b6000819050919050565b600061150d61150861150384610cbd565b6114e8565b610cbd565b9050919050565b6000819050919050565b611527836114f2565b61153b61153382611514565b848454611496565b825550505050565b600090565b611550611543565b61155b81848461151e565b505050565b5b8181101561157f57611574600082611548565b600181019050611561565b5050565b601f8211156115c45761159581611464565b61159e84611479565b810160208510156115ad578190505b6115c16115b985611479565b830182611560565b50505b505050565b600082821c905092915050565b60006115e7600019846008026115c9565b1980831691505092915050565b600061160083836115d6565b9150826002028217905092915050565b61161982610db2565b67ffffffffffffffff81111561163257611631610f31565b5b61163c825461135b565b611647828285611583565b600060209050601f83116001811461167a5760008415611668578287015190505b61167285826115f4565b8655506116da565b601f19841661168886611464565b60005b828110156116b05784890151825560018201915060208501945060208101905061168b565b868310156116cd57848901516116c9601f8916826115d6565b8355505b6001600288020188555050505b505050505050565b7f4f6e6c79206f776e65722063616e20656e642074686520656c656374696f6e00600082015250565b6000611718601f83610dbd565b9150611723826116e2565b602082019050919050565b600060208201905081810360008301526117478161170b565b9050919050565b7f4f6e6c79206f776e65722063616e2073746172742074686520656c656374696f60008201527f6e00000000000000000000000000000000000000000000000000000000000000602082015250565b60006117aa602183610dbd565b91506117b58261174e565b604082019050919050565b600060208201905081810360008301526117d98161179d565b9050919050565b7f4f6e6c79206f776e65722063616e2061646420766f7465720000000000000000600082015250565b6000611816601883610dbd565b9150611821826117e0565b602082019050919050565b6000602082019050818103600083015261184581611809565b9050919050565b7f566f74657220616c726561647920616464656400000000000000000000000000600082015250565b6000611882601383610dbd565b915061188d8261184c565b602082019050919050565b600060208201905081810360008301526118b181611875565b9050919050565b7f566f7465722063616e277420626520616464656420616674657220656c65637460008201527f696f6e2073746172746564000000000000000000000000000000000000000000602082015250565b6000611914602b83610dbd565b915061191f826118b8565b604082019050919050565b6000602082019050818103600083015261194381611907565b905091905056fea264697066735822122086449fa037bf05ebb5d29fe21d59269692489bcb926139a35a973725bf2b9c8164736f6c63430008130033",
  "immutableReferences": {},
  "source": "// SPDX-License-Identifier: MIT\npragma solidity >=0.4.22 <0.9.0;\n\ncontract Election {\nenum State {\nNotStarted, // Election not started\nInProgress, // Election in progress\nEnded // Election ended\n}\n\nstruct Candidate {\n    uint256 id;        // Candidate id\n    string name;       // Candidate name\n    uint256 voteCount; // Candidate vote count\n}\n\naddress public owner;         // Owner of the contract\nState public electionState;   // Current state of the election\n\nstruct Voter {\n    uint256 id;   // Voter id\n    string name;  // Voter name\n}\n\nmapping(uint256 => Candidate) candidates;   // Map of candidate id to candidate object\nmapping(address => bool) voted;             // Map of voter address to voting status\n\nmapping(address => bool) isVoter;           // Map of voter address to voting eligibility status\n\nuint256 public candidatesCount = 0;         // Count of candidates\nuint256 public votersCount = 0;             // Count of voters\n\nconstructor() {\n    owner = msg.sender;                     // Set contract owner to deployer\n    electionState = State.NotStarted;        // Set initial state to NotStarted\n    addCandidate(\"Candidate 01\");             // Add default candidates\n    addCandidate(\"Candidate 02\");\n}\n\nevent Voted(uint256 indexed _candidateId);  // Event emitted when vote is cast\n\nfunction startElection() public {\n    require(msg.sender == owner, \"Only owner can start the election\");  // Only owner can start election\n    require(electionState == State.NotStarted);                         // Election should not have already started\n    electionState = State.InProgress;                                   // Set state to InProgress\n}\n\nfunction endElection() public {\n    require(msg.sender == owner, \"Only owner can end the election\");    // Only owner can end election\n    require(electionState == State.InProgress);                         // Election should be in progress\n    electionState = State.Ended;                                        // Set state to Ended\n}\n\nfunction addCandidate(string memory _name) public {\n    require(owner == msg.sender, \"Only owner can add candidates\");      // Only owner can add candidates\n    require(electionState == State.NotStarted, \"Election has already started\");  // Election should not have already started\n\n    candidates[candidatesCount] = Candidate(candidatesCount, _name, 0);  // Add new candidate with id and name\n    candidatesCount++;                                                  // Increment count of candidates\n}\n\nfunction addVoter(address _voter) public {\n    require(owner == msg.sender, \"Only owner can add voter\");           // Only owner can add voters\n    require(!isVoter[_voter], \"Voter already added\");                    // Voter should not have already been added\n    require(electionState == State.NotStarted, \"Voter can't be added after election started\"); // Election should not have already started\n\n    isVoter[_voter] = true;                                             // Mark voter as eligible\n    votersCount++;                                                      // Increment count of voters\n}\n\nfunction checkVoter(address _voter) public view returns (bool) {\n    return isVoter[_voter];                                             // Return voting eligibility of voter\n}\n\n\nfunction getRole(address _current) public view returns (uint256) {\n    // Returns the role of the given address\n    if (owner == _current) { // If the address belongs to the owner\n        return 1; // Return 1 (owner role)\n    } else if (isVoter[_current]) { // If the address belongs to a registered voter\n        return 2; // Return 2 (voter role)\n    } else { // If the address doesn't belong to the owner or a registered voter\n        return 3; // Return 3 (non-voter role)\n    }\n}\n\nfunction vote(uint256 _candidateId) public {\n    // Allows a registered voter to cast a vote for a candidate\n    require(electionState == State.InProgress, \"Election is not in progress\"); // Requires the election to be in progress\n    require(isVoter[msg.sender], \"Non authorised user cannot vote\"); // Requires the sender to be a registered voter\n    require(!voted[msg.sender], \"You have already voted\"); // Requires the sender to not have voted before\n    require(_candidateId >= 0 && _candidateId < candidatesCount, \"Invalid candidate ID\"); // Requires a valid candidate ID\n    \n    candidates[_candidateId].voteCount++; // Increases the vote count for the selected candidate\n    voted[msg.sender] = true; // Marks the sender as having voted\n    emit Voted(_candidateId); // Emits an event indicating that the given candidate received a vote\n}\n\nfunction getCandidateDetails(uint256 _candidateId) public view returns (string memory, uint256) {\n    // Returns the name and vote count of a candidate\n    require(_candidateId >= 0 && _candidateId < candidatesCount, \"Invalid candidate ID\"); // Requires a valid candidate ID\n    return (candidates[_candidateId].name, candidates[_candidateId].voteCount); // Returns the candidate's name and vote count\n}\n\n}\n",
  "sourcePath": "C:\\Users\\itsme\\github-classroom\\Kerala-Blockchain-Academy\\project-submission-HashirAKB\\contracts\\Voting.sol",
  "compiler": {
    "name": "solc",
    "version": "0.8.19+commit.7dd6d404.Emscripten.clang"
  },
  "schemaVersion": "3.4.13",
  "updatedAt": "2023-05-11T20:55:22.462Z",
  "devdoc": {
    "kind": "dev",
    "methods": {},
    "version": 1
  },
  "userdoc": {
    "kind": "user",
    "methods": {},
    "version": 1
  }
}